:020000040800F2
:10000000F80D0020C901000825460008053F00083A
:100010001D460008E10B0008E95D00080000000033
:100020000000000000000000000000007552000801
:10003000751900080000000069500008F15600081A
:10004000E3010008E3010008E3010008E301000800
:10005000E3010008E3010008E3010008E3010008F0
:10006000E3010008E3010008E3010008E3010008E0
:10007000E3010008E3010008E3010008E3010008D0
:10008000E3010008E3010008E3010008E3010008C0
:10009000E3010008E3010008E3010008E3010008B0
:1000A000E301000871570008E3010008E3010008BC
:1000B000E3010008E3010008E3010008E301000890
:1000C000E3010008E3010008E3010008E301000880
:1000D000E3010008E3010008E3010008E301000870
:1000E000E3010008E3010008E301000800F002F862
:1000F00000F05BF814A696E8000CB244B344DA456D
:1001000001D100F052F8BAE80F000FA696E83000CF
:10011000A5EB040504EB0607AAEB0704A7F101070A
:100120004FEA15154FEA3414A4F10104AC4201D38F
:1001300000F03BF813F0010F18BFFB1A43F0010366
:1001400000F001F8DBE7184728630000486300006F
:10015000103A24BF78C878C1FAD8520724BF30C8F3
:1001600030C144BF04680C60704700007047000055
:100170000023002400250026103A28BF78C1FBD8B0
:10018000520728BF30C148BF0B607047642900F098
:10019000AB80752900F0A880732900F09F820020B1
:1001A00070471FB51FBD10B510BD00F0CDFA114648
:1001B000FFF7F7FF05F01CFE00F0EBFA03B4FFF7C2
:1001C000F2FF03BC00F0F2FA0948804709480047F3
:1001D000FEE7FEE7FEE7FEE7FEE7FEE7FEE7FEE7F7
:1001E000FEE7FEE704480549054A064B7047000054
:1001F0006D570008ED000008F8070020F80D0020FA
:10020000F8090020F80900200FB41CB50C0007AA5B
:10021000009007D04142A14202D32044401E01E099
:100220004FF0FF30074B7B4469460190069800F081
:1002300028FA0020002C01D0009908701CBC5DF841
:1002400014FB00007F04000070B504468569006857
:10025000C10601D5302600E02026C00707D070BDBA
:10026000D4E9012130469047206A401C20626D1E6F
:10027000F6D570BD70B5044685690078C00707D112
:1002800070BDD4E9012120209047206A401C2062E3
:100290006D1EF6D570BD70B50C460546012A05D019
:1002A0002878800600D5EA69002302E0012305E0F2
:1002B0005B1C934202D2E05C0028F9D1A869E618E1
:1002C000C01AA861286A184428622846FFF7BCFFB4
:1002D00004E0D5E9012114F8010B9047B442F8D3AA
:1002E0002846FFF7C7FF70BD2DE9F0410646002400
:1002F00010687529314616A510D0AFF3008000288C
:1003000002DA404213A507E031688A0701D512A539
:1003100002E0490704D511A5012401E0AFF30080F4
:1003200000210A2206F1240709E0B0FBF2FCB0FB31
:10033000F2F302FB1C00303078541846491C0028A8
:10034000F3D123462A463046BDE8F04100F03BB9E0
:10035000000000002D0000002B0000002000000025
:100360002DE9F05F894604464FF0000ADFF874B1CA
:10037000FB44C0F820A02046E1688847002874D0DC
:10038000252806D0D4E901219047206A401C20622C
:10039000F1E700265F462046E168884720280546A9
:1003A00007DB312D05D2781910F8200C08B106436F
:1003B000F1E7B00701D526F00406C4F81CA0002719
:1003C000C4F818A02A2D09D0284605F019FD38B325
:1003D00004EB8708303DC8F8185019E059F8041BA1
:1003E000204604EB87029161E1688847012F0546AA
:1003F00018D1E069002820DA26F020061DE0D8F8A0
:10040000180000EB800005EB40003038C8F81800F9
:100410002046E1688847054605F0F2FC0028EED149
:10042000012F0AD02E2D08D12046E16888477F1C75
:100430000546022F46F02006C4DBA069002803DA37
:10044000404246F00106A061F00701D026F01006F8
:100450006C2D0BD0682D09D04C2D39D06A2D35D09C
:10046000742D35D07A2D33D016E038E0E1682F4670
:1004700020468847B842054609D16C2F26D04FF454
:100480008060E168064320468847054604E06C2FFB
:100490001AD04FF4807006430DB3A5F1410019281E
:1004A00002D8203546F400664A4629462046266092
:1004B0004E46FFF76BFE80B101280BD0F61D26F0EB
:1004C000070000F1080956E74020E4E78020D8E75C
:1004D0000020D6E706F104094DE7284652E7206AD6
:1004E000BDE8F09F9A5A0000032A40F2308010F0D5
:1004F000030C00F0158011F8013BBCF1020F6244BF
:1005000098BF11F801CB00F8013B38BF11F8013B4F
:10051000A2F1040298BF00F801CB38BF00F8013BFC
:1005200011F0030300F0DE80083AC0F0088051F8B3
:10053000043B083A51F804CBA0E80810F5E7121D77
:100540005CBF51F8043B40F8043BAFF30080D20796
:1005500024BF11F8013B11F801CB48BF11F8012B62
:1005600024BF00F8013B00F801CB48BF00F8012B85
:1005700070474FF0000200B5134694469646203966
:1005800022BFA0E80C50A0E80C50B1F12001BFF44C
:10059000F7AF090728BFA0E80C5048BF0CC05DF8B2
:1005A00004EB890028BF40F8042B08BF704748BF00
:1005B00020F8022B11F0804F18BF00F8012B704774
:1005C0007047704770472DE9F0470D4699469246AF
:1005D000044600F124080168880604D5E06921F08A
:1005E0001001216000E00120A84201DD471B00E06E
:1005F0000027A1697A1902EB0900081AA061207886
:10060000C00602D42046FFF71FFE002608E0D4E90A
:1006100001211AF806009047206A401C761C2062CF
:100620004E45F4DB2078C0060AD52046FFF70CFEC5
:1006300006E0D4E9012130209047206A401C206266
:10064000381EA7F10107F4DC07E0D4E9012118F80E
:1006500005009047206A401C2062281EA5F1010574
:10066000F3DC2046FFF706FE2078000602D50220C4
:10067000BDE8F0870120FBE701694A1C02610878A8
:10068000704700B58FB0CDE90131002105910549D2
:100690007944CDE9031011466846FFF761FE0FB0BB
:1006A00000BD0000E5FFFFFFD1E900239A4202D21E
:1006B000531C0B601070704710B5436913B1AFF352
:1006C000008001E0FFF7E7FD012010BD127800F186
:1006D00024010A7000224A700122EDE711684FF0F0
:1006E000FF32E9E710B5203AC0F00B80B1E81850AE
:1006F000A0E81850B1E81850A0E81850203ABFF40C
:10070000F5AF5FEA027C24BFB1E81850A0E81850AA
:1007100044BF18C918C0BDE810405FEA827C24BFFE
:1007200051F8043B40F8043B08BF7047D20728BF8C
:1007300031F8023B48BF11F8012B28BF20F8023BDB
:1007400048BF00F8012B7047754600F02BF8AE4605
:1007500005006946534620F00700854618B020B5CD
:10076000FFF740FDBDE820404FF000064FF00007C6
:100770004FF000084FF0000BAC46ACE8C009ACE805
:10078000C009ACE8C009ACE8C00921F007018D46FA
:10079000704710B50446AFF300802046BDE8104016
:1007A000FFF70CBD004870471800002001491820D1
:1007B000ABBEFEE72600020070470000B0B504465D
:1007C00000688168C90709D0816821F00101816052
:1007D00001F0F6FE21688968C90701D10020B0BD8B
:1007E000054602E08068C007F8D001F0E9FE411B31
:1007F00020680329F6D38168C907F3D0A06A40F0C6
:100800001000A062E06A40F00100E0620120B0BD8B
:10081000B0B582B004460020019021688A68D207F2
:100820004BD1886840F00100886040F20C00C2F2B1
:10083000000000684DF68361C4F21B31A0FB01018A
:10084000880C01900198A0B101980138019001989D
:1008500078B1019801380190019850B101980138A0
:100860000190019828B10198013801900198002861
:10087000EAD101F0A5FE21688968C9071CD10546A7
:1008800003E000BF8068C00716D101F099FE411B4C
:1008900020680329F6D38168C907F3D1A06A40F024
:1008A0001000A062E06A40F00100E062002084F8DD
:1008B0002400012002B0B0BD002002B0B0BD000095
:1008C000F0B540F27805C2F20005E97F95F82240C4
:1008D0002B7E21402C8F01EA0300A6B295F8272039
:1008E000344680F00100002E18BF0124204310433D
:1008F0005FEAC07C3CD0B6FA86F063EA01016B7F08
:1009000040090843D9B2B1FA81F1490908431043BB
:10091000C00751D095F8230050B10021286C2971EF
:1009200085F82410296C2A6CE8641432C5E9112179
:1009300040F2A870C2F2000000210268A5F82F1052
:1009400085F8311085F82610D06B000407D0286C8C
:1009500029712B6C2E6CE8641436C5E911634FF4D1
:100960007A70D163106485F823102985F0BD00BF2B
:100970004FF0020E95F82820724523D1BCF1000FEC
:1009800085F829E062D040F2A870C2F20000D0F8E9
:1009900000C04FF47A700023002ECCF8400085F898
:1009A000233000F0978095F82F20002A00F09E80D9
:1009B00095F83010B1E000BF4FF0010E95F82820F7
:1009C0007245DBD095F8230050B10021286C2971C5
:1009D00085F82410296C2B6CE8641433C5E91131B7
:1009E00040F2A870C2F2000000230168A5F82F3081
:1009F00085F8313085F82630C86B000407D0286CA4
:100A00002B712C6C2F6CE8641437C5E911744FF40A
:100A10007A70CB63086485F823301AB1002085F81A
:100A200028004DE095F82900704549D140F2F401C5
:100A3000C2F20001286C0969401A48BFF0BD85F870
:100A400028E0BCF1000F85F829E09CD140F20800B5
:100A5000C2F20000B0F802C095F82300BCF57A7F1E
:100A60004FF0000238BF012290424FF0000309D03E
:100A7000286C296C2F6C1431C5E91110EF6485F8CE
:100A800024302B7140F2A870C2F200000168A5F872
:100A90002F3085F8313085F82630C86B000407D038
:100AA000286C2B712B6C2F6CE8641437C5E911731B
:100AB0000020C863C1F840C085F82320F0BD00BF06
:100AC00085F829E0286C40F2F4011430C2F20001EC
:100AD0000861F0BDA5F82F3085F8313085F8263053
:100AE000DCF83C0080B283423BD044E0582E01D277
:100AF000042110E006EB86004FF4FA7101EBC00010
:100B000041F26F21C0F28301A0FB010358082821A4
:100B1000282838BF590885F83010C9B200208A4209
:100B200038BF012085F82600501CC7B20023282FAB
:100B300085F82F000ED3012085F82F308A4285F8E2
:100B4000310038BF4FF47A73DCF83C0080B2834246
:100B500007D010E08A4207D3DCF83C0080B2834221
:100B600009D1CCF83C30F0BD4FF47A73DCF83C008E
:100B700080B28342F5D00021286C2971296C2A6C3F
:100B8000E8641432C5E91121CCF83C30F0BD000016
:100B900040F27800C2F2000090F82710002918BF38
:100BA000704780B5018F0122642998BF6421818735
:100BB000002180F82C108167D0F840E0036C80F8A9
:100BC0002720417640F2F40C026CC2F2000CCCE912
:100BD00000E3CCF808200187BDE8804070470000A2
:100BE00000F0CAFEFEE7000041F679618842BEBF10
:100BF0004FF4FA7080B2704742F20701884213D86E
:100C000044F62841CFF6DC714FF4967200FB0210D7
:100C100048F21F51C5F2EB11A0FB01014FF4FA702D
:100C2000A0EBD11080B2704747F6E041CFF6F371E8
:100C3000642200FB02135043002B09D4084448F2FD
:100C40001F513230C5F2EB11A0FB010149090DE043
:100C500048F25031C0F20C01081A48F21F51C5F297
:100C6000EB11A0FB01010020A0EB5111C1F1C80064
:100C7000B0F5FA7FA8BF4FF4FA706429C8BF6420AA
:100C800080B270472DE9F04F85B040F27805C2F28E
:100C90000005286CE97D012906D1296D411A052935
:100CA0003CBF05B0BDE8F08F0121E97528654FF024
:100CB000000A04A90020ADF80EA004F0D7F940F214
:100CC00008070028C2F2000700F0A582BDF8100056
:100CD00040F6E4414843212100F2FF70C2F20201D4
:100CE000A0FB0101480A932146F20B2B4843C0F2B6
:100CF000725BA0FB0B0141F2883042F2597201FB9A
:100D0000020241F25976CDF2B716A2FB062342F653
:100D10007A2201FB02007A88A0FB060195F8236085
:100D2000490B002E08BF4FF47A7297B2B7F57A7F5D
:100D30004FF00007A1EB533198BFC2F57A77FF3926
:100D4000BAB2514344F6D352580B0029C1F26202A1
:100D500006D401F5FA71A1FB0212910907E000BF68
:100D6000C1F5FA71A1FB02120021A1EB9211084416
:100D7000223810F1320FD8BF6FF0310095F82A30C9
:100D800040F23C62C2F2000252F823706C6F3230C3
:100D9000E71B42F82300013395F82B103A18DFB215
:100DA000272F40F2A879C5E917006A6788BF00239A
:100DB000272985F82A309CBF013185F82B10C2F213
:100DC0000009D9F800C002EB5102B2FBF1F3DCF8E4
:100DD0003C20296C4CF6CD47002ACCF6CC4700F0DD
:100DE0002581AA6C4FF0000E891AA1FB072440F25E
:100DF000FB424FF0FF379142314638BFA708002E23
:100E000018BF012195F824406A6EE40708BF1A460E
:100E1000002E18BF1A4642F202139842AA6633D334
:100E200095F82500032819D095F82700B0B9288F28
:100E30000127642898BF6420A887002085F82C002B
:100E4000A867296C2B6C85F82770687640F2F4024D
:100E5000286CC2F20002C2E90013906000202887CB
:100E600085F82600DCF83C10090407D0296C2871AD
:100E70002A6C2B6CE9641433C5E911320121CCF8DA
:100E80003C00E97709E000BFEA7F002A00F000811A
:100E9000688F002800F09281013840F208074FF077
:100EA0000008C2F200070126688703A9022004F0A7
:100EB000DDF8002800F0AF810DF10A01032004F0F5
:100EC000D5F8002800F0A781BDF80C0040F6E443F7
:100ED0005843212100F2FF70C2F20201A0FB01027F
:100EE000BDF80A004CF2D75C584300F2FF70A0FB3B
:100EF000010E520AC3F26D4C96B9BDF80E707B43D9
:100F000003F2FF73A3FB01377B0A4FF47A777B432D
:100F100003F6C413A3FB0C37BB0AEB660123AB77C4
:100F200041F288334FF47A7795F82D6040F2F40A55
:100F300002FB0732C2F2000A0AEB8600A2FB0C2376
:100F40004169DAF80C40DF0A611A4761701C95F8B4
:100F50002E2001EBD323C1B2CAF80C30032988BF7D
:100F60000020032A85F82D009CBF013285F82E2031
:100F700003EB5200B0FBF2F9B9F10B0F80F2AE8037
:100F80000022B8F1000F2A6727D14FEA5E204FF404
:100F90007A71484300F6C410A0FB0C01AF7E40F20A
:100FA0009C5CC2F2000C8B0A5CF827406E6D4CF81A
:100FB00027307B1CE87E361BDFB206EB9121272F02
:100FC000696588BF00232728AB769CBF0130E8768F
:100FD00001EB5001B1FBF0F0A865B2F1FF3FDCBFBF
:100FE00000202867AE6D0120B6F1FF3FDCBF002670
:100FF000AE65A97F85F8220001297BD1E96E002723
:101000003129C8BF012795F825206323032A08BF8B
:1010100040F2572331294FF48071D8BF40F2572353
:1010200085F832706B872877E98370E0EA6C4FF0BF
:10103000FF3E8A1AA2FB071440F2FB418A4238BFE6
:101040004FEA940E002E314618BF0121002E4FF0BA
:1010500000077FF4D7AE142AFFF4D4AEB0F5C85F12
:1010600040F2188241F6BA51884200F2A38142F25E
:101070005D62C0EB0011CFF6FA7202EB81014DF612
:10108000FF62CDF6A502A1FB0212910A01E200BFA8
:101090005FFA8EF04FF0000804284FF00106C0F010
:1010A000DB80287E40F208070843C007C2F2000731
:1010B0007FF4FBAE95F8270000287FF4F6AE95F894
:1010C000280000287FF4F1AE95F8290000230028BD
:1010D0004FF0000000F09080E7E600BFB9F16F0F1D
:1010E00080F01081A9F10A02B8F1000F2A673FF4DD
:1010F0004CAF72E795F82700012805D0286E42F220
:1011000002118842C0F276810120E8770027E96D5C
:1011100041F26F72AC6E91424FF000014FF000034C
:10112000C8BF01219442C8BF0123194001296F772C
:1011300011D195F82080B8F1000F0FD1B4F5C85F38
:101140000CD995F82120132A05D8531C132A85F8A9
:10115000213040F0E581884685F82010002185F88F
:10116000211095F831B0002185F83110F0B195F8D3
:10117000250095F82720296E032873D0002A71D105
:1011800042F2021399426DDB2A8F0127642A98BF2D
:101190006422AA87002285F82C20AA672A6C2B6C6F
:1011A00085F827702F6C8AE88C0060E040F2080711
:1011B000C2F200076977298769768CE22B7E0126C7
:1011C00051EA03004FF0000846D195F827E0BEF140
:1011D000000F41D195F8280001283DD195F826004F
:1011E000D0B3F8B240F208070428C2F20007FFF4B7
:1011F0005CAE95F82900F046DCF83C60002818BF8A
:101200000120194307D1B8F1000F04BF104390EA41
:10121000020000F091804FF47A70788040F29C5088
:10122000C2F20000A02185F822A0A5F838A0A5F8F8
:1012300018A0C5F854A0FFF79CF9A5F81AA0C5F8A6
:1012400058A0C5F81CA0A5F83AA0A5F820A005B0A4
:10125000BDE8F04FFFF734BB40F20807C2F20007C9
:1012600023E600BF002A00F0B980DAF8002000234E
:101270002B876B762B6C9A1AC82AC0F0FC812A6CDB
:10128000DAF80430D21A052AC0F0F5812A6CAB6F67
:10129000CAF8042095F82C2019443B2AA96705D8E0
:1012A00002F1010285F82C2040F0E58148F2C213DA
:1012B000C0F207030022994285F8272085F82C20E8
:1012C00080F232810138012800F2D581A88F0146D1
:1012D000B0F5967F28BF4FF49671323996284FF0BB
:1012E000020038BF642185F82500298740F29C5010
:1012F0000024C2F20000A0216C65FFF73AF96C836C
:10130000AC65B8E1BC2009FB00F245F2C80048F228
:101310001F53101AC5F2EB1300F1848045F26400EC
:10132000101AA0FB03018A096432B8F1000F2A6782
:101330007FF453AE29E600BF0196DCF83C0080B292
:10134000B0F57A7F08D00021286C2971296C2A6CAD
:10135000E8641432C5E911214FF47A70CCF83C00EE
:10136000DCF8246001F02CF9D84641F2597B0446A0
:10137000CDF2B71BD9F800003146466A8E4261D3E0
:1013800001F01EF9001B0628F4D3D9F8000050F82C
:101390003C1F019E89B2B2B28A4208D00022296C59
:1013A0002A712A6C2B6CE9641433C5E91132B1B28D
:1013B000016030E741F65471884269D800EB800142
:1013C00045F6BD3202EBC10189B2490849F6D9722E
:1013D00051433C2202EBD1515BE000BF032875D1A1
:1013E00042F20212914271DB0020288785F8330017
:1013F00041E100BF287F012846D1688F95F832105F
:1014000058B9002940D095F8250003283CD0288FF2
:10141000D0B395F82800012836D1E87F00EA01070B
:1014200075E600BF45F22C10801AA0FB03010020D6
:10143000A0EB91126432B8F1000F2A677FF4CDADB2
:10144000A3E500BF0198002876D001F0B9F8044662
:10145000D9F80000406A80087C2800F2DC8001F0A6
:10146000AFF8001B0628F3D3D9F8000040F20807B4
:1014700050F83C1F019E89B2B2B28A42C2F2000704
:101480007FF48CAF93E700BF0020E87728773DE634
:101490006421084495F82410024601290ED12979C7
:1014A000024659B1696E421A02F102044FEA9404ED
:1014B000C2F1020248BFA7EB920462180124002186
:1014C00085F824402C71C5E918029EE4032840F0F9
:1014D000BB8041F6786100208C42288768763FF710
:1014E00085AF95F83300142805D2411C132885F8E0
:1014F000331040F0C0800020002F85F8330085F8BD
:10150000250000F0B58041F67860844200F3CA817E
:10151000012085F825004FF461702887E6E600BFBA
:101520004FF000081DE600BF032085F8250085F870
:1015300033206A879FE000BF6FF0090641F28837C9
:1015400042F202140A2000F081FE00200DF1120187
:10155000042203F02BFE002800F03881BDF81200B1
:1015600040F6E4414843212100F2FF70C2F202013B
:10157000A0FB0101480A93214843A0FB080142F265
:10158000597001FB007040F20803A0FB0B2042F6EB
:101590007A2201FB0271C2F20003A1FB0B1295F843
:1015A00023105B88002908BF4FF47A7399B2520B5D
:1015B000B1F57A7F4FF0000198BFC3F57A71A2EBC5
:1015C0005032FF3A89B25143002909D444F6D3522C
:1015D00001F5FA71C1F26202A1FB021291090AE05F
:1015E00044F6D352C1F5FA71C1F26202A1FB0212B4
:1015F0000021A1EB9211400B0844223810F1320F68
:10160000D8BF6FF031003230A042E86580F0088129
:101610000A36BD2E96D90DF10E010320082203F0E3
:10162000C5FDD9F80010CB6B019A9BB292B29A42D9
:1016300008D000272B6C2F712F6C2E6CEB641436A6
:10164000C5E91167CA63D4E0B0FA80F295F8243096
:1016500052091A400021012A85F8331040F08A808F
:1016600042F208039C42C0F28580032085F82500E1
:10167000002028876876E88E50B1013840F20807CC
:101680000104C2F20007E88614D10220687517E051
:10169000687D40F208070128C2F200070AD078B935
:1016A000287F95F8321080F001000843B8F1000F50
:1016B0000AD110E00020B8F1000F05D10BE000BF07
:1016C0000120B8F1000F06D095F82710002908BFB7
:1016D0005FEAC0710AD04FF47A70788000202876D3
:1016E00005B0BDE8F04FFFF7EBB800BF95F832103A
:1016F0002A7F81F0010111400843C007EBD0A97D8A
:10170000002001294FF0000140F0EB8039884FF6AE
:10171000D463A1F22D1292B29A42DCD344F2AF729A
:101720004A43A1EB12439BB25B0803EB124212093E
:10173000192302FB13121204CDD1642902D80A31F5
:1017400010E000BFC822514344F6C252891A44F245
:101750005D12CAF64C62A1FB02126E2101EBD2119E
:101760000A04B8D089B2A1EB09027988152A29DBCD
:101770000839AFE041F678639C42C8BF01210A42B4
:101780007AD0022085F82500FA20288740F29C5064
:101790000026C2F20000A0216E65FEF7EAFE002FCF
:1017A0006E83AE653FF464AF41F64660844200F359
:1017B000A480012085F825004FF46170288700205F
:1017C00058E700BF092A63DB033983E0D9F800102A
:1017D00051F83C0F00044FF0000008D000232A6CA1
:1017E0002B712B6C2F6CEA641437C5E9117300223E
:1017F0000A6040F208070028C2F200073FF40BAD70
:10180000012805D100264FF00108FFF74EBB00BFAD
:101810004FF00108002085F81F80FFF744BB00BF90
:1018200095F82500032819D095F82700B0B9288F1E
:101830000127642898BF6420A887002085F82C0021
:10184000A867296C2B6C85F82770687640F2F40243
:10185000286CC2F20002C2E9001390600020D9F89F
:101860000010288785F8260051F83C0F00044FF03F
:101870000200B3D1BBE700BF002F3FF4F9AE02284E
:1018800092D0012818D000283FF43DAEF3E600BF07
:10189000022A01DB01391DE012F1150F06DC0831C7
:1018A00018E000BF00202887E5E600BF12F1090F0D
:1018B0000CDC03310EE000BF41F6776100208C4262
:1018C000687617DC4FF461702887D4E6B2F1FF3FE9
:1018D000B8BF0131B1F57A7FA8BF4FF47A7121EA20
:1018E000E171798001212983288705B0BDE8F04F97
:1018F000FEF7E6BF022085F825002F8F1FB9642769
:1019000000202F8768762046FFF76EF987420CD8B3
:101910004FF0000128BF01218BF00102114305D1D6
:1019200007F11401814238BF0846288742F20700B8
:10193000844205D800206876286CCAF808009AE628
:10194000E87E282810D3632EF4D8286CDAF8081023
:10195000411A687E052908D3632806D8296C01300E
:10196000CAF80810687600E0687E642828BFFFF790
:101970000FF980E67047000086B0002641F218009B
:10198000CDE90466CDE90266C4F20200016840F6C2
:10199000004441F0080101600168C4F2010401F053
:1019A000080101910199016847F2407741F0100167
:1019B00001600068012100F01000019001982046AC
:1019C0000022C0F21B074FF0010800F0F3FD204693
:1019D000022101224FF0020900F0ECFD03200DF17D
:1019E000080ACDE90208CDE904602046514600F01E
:1019F000CBFC04F5806420464FF4005101224FF4E3
:101A0000005500F0D7FD20465146CDE90258CDE9FA
:101A1000046900F0B9FCEFF3108072B620464FF471
:101A2000005100F0BFFD01960198B842F6D200BF08
:101A30000198013001900198B842EFD200BF01989F
:101A4000013001900198B842E8D200BF01980130FE
:101A500001900198B842E1D200BF01980130019095
:101A60000198B842E3D3D9E770B582B004460020AC
:101A7000019094F82400012802D1022002B070BD28
:101A8000012084F824002046FEF798FE2046FEF749
:101A9000BFFE28B1002184F8241002B070BD00BF41
:101AA0000646A06A41F2021188430230A06240F269
:101AB0000C00C2F200000568022001F057F9B5FBE6
:101AC000F0F0400001900198A8B100BF01980138E2
:101AD0000190019878B1019801380190019850B1B6
:101AE000019801380190019828B1019801380190BE
:101AF00001980028EAD12068816841F008018160DE
:101B000000F05EFD21688A6812070FD4886840F0F3
:101B10000400886000F054FD21688968490715D4E5
:101B200001216FF00302304622E000BF054602E0CB
:101B300088680007EAD500F043FD401B21680B28A8
:101B4000F6D388680007F3D50EE000BF054602E033
:101B500080684007E4D500F033FD411B20680B2965
:101B6000F6D381684907F3D5012010216FF01202E6
:101B7000A36A1A401143A162002184F8241002B024
:101B800070BD000070B581B00022009290F8242052
:101B9000012A03D10221084601B070BD4A68012321
:101BA000062A02EB820E80F8243007D8D0F800C055
:101BB0006FF004030CF134060CE000BFD0F800C055
:101BC0000C2A87BF0CF12C066FF040030CF1300695
:101BD0006FF022030EEB03021F23346803FA02F5B1
:101BE0000B6824EA050503FA02F22A433260092B46
:101BF00003EB43021AD9DCF80C601E3A072589680A
:101C00009540AE43914023F001023143102ACCF8B5
:101C10000C1015D142F20041C4F201018C4517D0DD
:101C2000816A41F02001816201210AE0DCF8103074
:101C3000072689689640B34391401943CCF81010A9
:101C40000021002280F82420084601B070BD00BFAA
:101C500089680902F4D4DCF80810102B41F4000163
:101C6000CCF80810ECD140F20C01C2F20001096876
:101C70004DF68362C4F21B32A1FB0212910C01EB00
:101C800081014900009100990029D9D000990139BA
:101C9000009100990029D3D0009901390091009951
:101CA0000029CDD000990139009100990029C7D0B1
:101CB000009901390091009900294FF00001E5D108
:101CC000BFE700000068C06C70470000002804BF38
:101CD00001207047B0B50446806A28B12168886841
:101CE000C0070CD115E000BF0020E06284F824009A
:101CF000204600F097F821688868C00709D08868F6
:101D000020F00100886000F05BFC21688A68D2073F
:101D100026D1A06AC0063AD4A06A41F202129043CA
:101D20000230A062E069D4E9013240EA030C531E9C
:101D3000B3FA83F35D091346B2F5807F18BF2B0217
:101D4000207D257B01284CEA45002CD135B3A56ABE
:101D500045F02005A562E56A45F00105E56222E04F
:101D6000054602E08868C007D3D000F029FC401B7C
:101D700021680328F6D38868C007F3D0A06A40F032
:101D80001000A062E06A40F00100E062A06AA06A70
:101D900040F01000A0620120B0BD00BFA56903EBB8
:101DA0004533A3F5C0534D68B2F5807F25F46945EE
:101DB00043EA05034B608B684FF2FD75CFF6E17582
:101DC00003EA050343EA00038B6001D0012A07D12F
:101DD00022690023CFF6F07303EB025201E000BF4B
:101DE0000022CB6A23F470031A43CA62896840F662
:101DF000FE62CFF61F721140814207D10020E062DF
:101E0000A16A012262F30101A162B0BDA06A40F0A3
:101E1000100020F00200A062E06A40F00100E062E1
:101E20000120B0BD80B586B0014640F60000C4F286
:101E30000100096800F5E05291424FF00001CDE940
:101E40000411CDE9021101D006B080BD41F21801A4
:101E5000C4F202010A6842F400720A600A6802F4DD
:101E600000720192019A0A6842F004020A6009684D
:101E700001F00401019101990D21029103210391C7
:101E800002A900F081FA06B080BD00002DE9F04102
:101E900082B000270D460446019700F091FB2168AF
:101EA0008A68D20544D406464868C00503D4C86A87
:101EB00010F4700F46D040F20C00C2F20000076828
:101EC00042F292480220C1F2492800F04FFF2168F7
:101ED00044F624130A69B7FBF0F0C2F292431A42A7
:101EE00006D1CA6844F62413C0F292031A425BD0AA
:101EF0000A6912EA080F07D1CA6842F29243C0F297
:101F000049031A4200F0C0800A6949F24923C0F22D
:101F100024031A424FF0FC0254D1CF681F4208BF7D
:101F20005422019B02FB00F7BB4250D3C3E000BF29
:101F3000A06A40F02000A06284F82470012002B062
:101F4000BDE8F0810868800700F1B580681C00F0EA
:101F5000A880FDB90868800770D50868800700F17F
:101F6000AA800868800769D50868800700F1A38007
:101F70000868800762D50868800700F19C800868BF
:101F800080075BD508688007E4D594E0086880077F
:101F900000F1918000F014FB801B2168A842F5D964
:101FA00008688007F2D449E00A6912EA080F4FF086
:101FB000290207D1CB6842F29247C0F249073B425F
:101FC00008BF1422019B02FB00F7BB4273D2681CBE
:101FD00052D05DBB0198B84230D3019801300190D6
:101FE0000198B84267D20198B84227D301980130CE
:101FF00001900198B8425ED20198B8421ED3019870
:10200000013001900198B84255D20198B84215D3D9
:102010000198013001900198B842DBD34BE000BF3A
:102020000198013001900198B84235D200F0C8FA09
:10203000801BA842F4D90198B842F1D2A06A40F0BE
:102040000400A062002084F82400032002B0BDE850
:10205000F08100BF0198013001900198B8422AD266
:102060000198013001900198B84224D201980130C2
:1020700001900198B8421ED2019801300190019858
:10208000B842E7D317E000BF5422019B02FB00F7E0
:10209000BB429CD30FE000BF21680CE008688007BA
:1020A00009D40868800706D4086880075CBF086800
:1020B0005FEA8070F2D56FF012000860A06A40F409
:1020C0000070A062886800F46020B0F5602F01D134
:1020D000207B18B1002002B0BDE8F081A06A20F496
:1020E0008070A062A06AC004F4D4A06A40F001002D
:1020F000A062002002B0BDE8F081000010B50446E7
:1021000090F82400012804BF022010BD012084F8AB
:1021100024002046FEF77CFB20B1002084F8240038
:10212000012010BD42F2044C2068A16AC4F2010CE7
:1021300040F2013291430CF57F7201F580719042BB
:10214000A16229D0A16A21F48011A16241684905E8
:1021500004D5A16A012363F30D31A162A16A0023B2
:10216000C9044FF0000144BFE16A21F00601E162B9
:102170006FF0020184F824300160816801F460216D
:10218000B1F5602F1BD1904214D0816841F4A001B9
:102190008160002010BD00BFDCF8001011F4702F2A
:1021A000D0D0A16A41F48011A162DCF80010490589
:1021B000CFD4D3E7DCF8001011F4702FE5D081689C
:1021C00041F480118160002010BD0000B0B50446CC
:1021D00090F82400012804BF0220B0BD012120682E
:1021E00084F824108168C90709D0816821F00101B1
:1021F000816000F0E5F921688968C9070ED12146A0
:1022000051F8280F41F2011220EA0202002042F0A8
:1022100001020A60002184F82410B0BD054602E0E6
:102220008068C007EBD000F0CBF9411B2068032980
:10223000F6D38168C907F3D0A06A214640F01000A8
:10224000A06251F82C2F0120E1E70000B0B5044650
:1022500000F0B6F9054640F20000C2F20000007836
:10226000611C18BF044400BF00F0AAF9401BA04243
:10227000FAD3B0BD002908BF70472DE9F04F81B0F7
:1022800040F2004E41F20042C4F2010EC4F20102DB
:1022900090424FF004024FF000046FF01F05AEF5BE
:1022A0007E774FF00F0808BF0322009219E000BFAD
:1022B0000246BBF5807F24BF0432AA46136808FAA1
:1022C0000AF6B343042606FA0AF633431360C268DB
:1022D00002EA0C02C260013431FA04F205F104058D
:1022E0004ED00122A24012EA010BF4D024F00302E6
:1022F000BE5840F60002C4F20102904210D040F6EF
:102300000042C4F20102904208D041F20002C4F23D
:1023100001029042009A08BF022202E0012200E07E
:10232000002205F1200A0AF00C0308FA03F906EA74
:1023300009069A4096426FEA0B0CB9D1DEF80020EC
:1023400040F20C4302EA0C02CEF80020DEF8042032
:10235000C4F2010302EA0C02CEF804201A6802EA71
:102360000C021A60DEF80820A30802EA0C02CEF87C
:10237000082057F8232022EA090247F8232097E78C
:1023800001B0BDE8F04F70472DE9F04F82B00E6804
:10239000002E00F0FD8041F20042C4F2010204234D
:1023A00040F2004E904208BF03234FF6FF7CC4F278
:1023B000010E009300240123C1F2100C4FF0000A1B
:1023C0004FF000094BE000BF41F20002C4F20102ED
:1023D000009F904208BF022704F00C030F229A408E
:1023E0002BEA020207FA03F34FEA9A051A4346F86A
:1023F00025204E6840F20C45F202DEF8082054BF5A
:1024000022EA080242EA0802C4F20105CEF80820D6
:102410002A68B30254BF22EA080242EA08022A608C
:10242000B303DEF8042054BF22EA080242EA08029D
:10243000F303CEF80420DEF800204FF0010354BF70
:1024400022EA080242EA0802CEF800200E680AF1E9
:10245000010A36FA0AF204F1040400F0998003FA42
:102460000AFB16EA0B08F1D04E68664512DC122E04
:1024700056D8DFE806F0350B4D495555555555559D
:102480005555555555555545510000BFD1F80C903F
:1024900046E000BF4FF6FF72C1F2210296420FDC08
:1024A0000022C1F2110296421AD00022C1F2120299
:1024B000964215D00022C1F22102964210D02FE0A0
:1024C0000022C1F2220296420AD00022C1F2310259
:1024D000964205D00022C1F23202964220D100BFBE
:1024E0008A684AB1012A14BFC0F814B0C0F810B00D
:1024F0004FF0080914E000BF4FF0040910E000BFDE
:10250000CA6802F104090BE04FF0000908E000BFBF
:10251000CA6802F1080903E0CA6802F10C0900BFA9
:1025200002462646B8F5807F24BF0432203E176855
:102530000F25B54027EA050509FA06F6354315606B
:10254000CA79D2067FF582AF41F21803C4F20203C2
:102550001A68AEF57E7642F001021A601A6802F03F
:1025600001020192019A2AF0030256F802B040F6E5
:102570000002C4F20102904208D040F60042C4F2C8
:10258000010290427FF420AF012725E7002723E7CF
:1025900002B0BDE8F08F00008068084018BF01203D
:1025A00070470000C26802EA0103914341EA034117
:1025B00001617047002A08BF0904016170470000EB
:1025C00040F2F070C2F2000000687047002804BFBB
:1025D0000120704710B5242180F83D1001680446A1
:1025E0000A6822F001020A6000F0B4FA00202064B8
:1025F00084F83D00206384F83E0084F83C0010BD60
:10260000002804BF01207047F0B581B0044690F85F
:102610003D0028B9002084F83C00204600F0BAFABA
:10262000242084F83D002068016821F00101016048
:10263000016841F400410160016821F4004101603A
:1026400000F070FD636848F2A16CC0F2010C40F626
:102650000011C0F23D0163453CBF48F28041C0F229
:102660001E01884202D2012001B0F0BD4DF6836107
:10267000C4F21B31A0FB01122168970CD1F804E0D1
:102680004FF496762EF03F0545EA92454D6077432C
:1026900048F638160D6AC0F24106A7FB067625F00B
:1026A0003F07634538BF960C721C3A430A62CA69F9
:1026B00048F2A0664CF6FF77C0F20106B34222EA68
:1026C00007020BD801385B00B0FBF3F001306FF369
:1026D0001F30042898BF04201BE000BFA768013802
:1026E00057B119277B43B0FBF3F001306FF31F3074
:1026F00070B100F5804007E003EB4303B0FBF3F05B
:1027000001306FF31F3018B100F5004001E000BF49
:1027100001201043C8610868D4E9072320F0C000F5
:10272000104318430860886848F2FF3204F10C0730
:1027300090438CCF18431043A6698860C86820F086
:10274000FF0038433043C860086840F0010008606B
:1027500000202021206484F83D10206384F83E008E
:1027600001B0F0BD2DE9F04F83B01E469246884679
:102770000446FFF725FF94F83D10202924D1216855
:10278000054600BF886980071AD5FFF719FF401B6F
:1027900021681A28F6D388698007F3D50020202104
:1027A000206384F83D1084F83E00216C41F0200144
:1027B000216484F83C00022003B0BDE8F08F00BF24
:1027C00094F83C00012803D1022003B0BDE8F08F4B
:1027D0004FF0010984F83C900868C00703D10868ED
:1027E00040F0010008600868002720F400600860DD
:1027F000242084F83D000020CFF6FF702764E062BB
:1028000008F0FE08BAF1010F88BFD1464FF0A00AC8
:102810004FF0200B04E000BF01374F4500F0A280CD
:102820000868002240F48070086020464FF00111D3
:102830003346009501F0C8FB2168002856D1C1F845
:102840001080FFF7BDFE21684B694A6994F83D503E
:10285000A02D054605D013F0020008BF12F48060D9
:102860001AD084F83DB048690A68800742F40072C3
:102870000A6045D46FF48060486100BF88698007B2
:10288000CAD5FFF79DFE401B21681A28F6D3886938
:102890008007F3D54AE000BFB6B100BFFFF790FE56
:1028A000401BB04288BF84F83DA021684A6948694E
:1028B00094F83D30A02BD4D012F0020208BF10F4DF
:1028C0008060EBD0CDE700BFFFF77AFE84F83DA033
:1028D00021684A69486994F83D30A02BC1D012F0B4
:1028E0000202BED110F48060EED0BAE70868C005DD
:1028F00044BF4FF400702064032003B0BDE8F08FA4
:1029000000200290486902908869029002988869C4
:1029100001E000BF806980071AD5FFF751FE411B17
:1029200020681A29F6D381698907F3D50020202170
:10293000206384F83D1084F83E00216C41F02001B2
:10294000216484F83C00012003B0BDE8F08F00BF93
:10295000202084F83D00002084F83C0003B0BDE84E
:10296000F08F00BF202084F83D00002084F83C0058
:10297000012003B0BDE8F08F2DE9F04383B01E467F
:10298000174689460446FFF71BFE94F83D102029A0
:1029900024D10546206800BF816989071AD5FFF751
:1029A0000FFE411B20681A29F6D381698907F3D5E8
:1029B00000202021206384F83D1084F83E00216C23
:1029C00041F02001216484F83C00022003B0BDE8FE
:1029D000F08300BF94F83C10012903D1022003B01A
:1029E000BDE8F083012184F83C100168C90703D1D8
:1029F000016841F001010160016840F2020821F420
:102A000000610160212184F83D10102184F83E10FE
:102A10000021216467626685618DC0F2010821850D
:102A2000A8F10211E162E16A0A9E11F5803F18BF28
:102A300001291DD1016841F48071016020464FF0E9
:102A4000011100223346009501F0BEFA50B1206812
:102A50000068C00544BF4FF400702064012003B03B
:102A6000BDE8F0832069B0F5804F07D1FE2015E066
:102A70000829DFD0216B1229DCD0DFE7062000EA2D
:102A8000D9102168F030086108F10601204632466D
:102A90002B4601F07FFB0028E0D1FF20216800EAEF
:102AA000090008612046414632462B4601F072FB80
:102AB0000028D3D1002002902068416902918069EA
:102AC0000290029806E000BF204631462A4601F0F7
:102AD0001DFA18BB208D68B3204631462A4601F006
:102AE000C5FBD8B9606A2168024612F8013B0B6148
:102AF0006262628D013A6285228D531E23854F6981
:102B00007F07E1D51B04DFD0437802300B616062A0
:102B1000608D01386085901E2085D5E7206C0428E3
:102B20009CD12068016841F400710160012003B06C
:102B3000BDE8F0832068016841F400710160202045
:102B400084F83D00002084F83E0084F83C0003B087
:102B5000BDE8F08310B540F60044C4F201040068FB
:102B6000A4F53441884218BF10BD41F21C00C4F2E4
:102B70000200016821F48001016020464FF4806169
:102B8000FFF778FB20464FF40061BDE81040FFF7E7
:102B900071BB000010B586B0016845F60000C4F2B4
:102BA000000081424FF00001CDE90411CDE902118E
:102BB00002D006B010BD00BF41F21804C4F20204F6
:102BC000216800F5344041F008012160216801F0DE
:102BD0000801019101994FF4406102911221039182
:102BE0000321059102A9FFF7CFFB606840F4800044
:102BF0006060606800F480000190019806B010BD2C
:102C000040F2000040F2F071C2F20000C2F2000196
:102C100000780A68104408607047000080B542F2EE
:102C20000000C4F20200016841F0100101600320BD
:102C300000F08CF80F2000F005F800F027F80020D5
:102C400080BD000070B540F20006C2F2000640F2FE
:102C50000C013278C2F200014FF47A730968B3FBB9
:102C6000F2F20446B1FBF2F1084600F083FC0F2CAF
:102C70004FF0010508D838B94FF0FF302146002247
:102C8000002500F037F87460284670BD82B041F22C
:102C90001800C4F202000168022241F00101016043
:102CA000016801F0010101910199416841F08051F1
:102CB0004160406800F08050009000980420C4F209
:102CC0000100016862F31A61016002B07047000000
:102CD000002848BF704700F01F01012202FA01F1ED
:102CE0001C2202EAD0004EF20012CEF20002815005
:102CF0007047000010B54EF60C5CCEF2000CDCF80C
:102D00000030C3F3022E8EF00704042C28BF0424E5
:102D1000BEF103034FF0FF3E0EFA04F438BF002368
:102D2000A14399400EFA03F39A43114300F00F02B6
:102D300000F160430901043A03F56443624400284A
:102D400048BF02F10C03197010BD00004EF60C5183
:102D5000CEF200010A684FF6FF031A4060F30A2220
:102D600042F0806040F0FD7008607047012821D07B
:102D700002280DD0102808D141F20401C4F202014A
:102D80000A6851F8040CC00134D40020704700BF19
:102D900080B500F0DBF941F20401C4F202010968D8
:102DA0000222C1F3813102EB4101B0FBF1F0BDE839
:102DB0008040704741F20400C4F20200C16940F251
:102DC00002320A40B2F5817F04BF4FF400407047E1
:102DD00001F44071B1F5407F18D0B1F5007F1CBF00
:102DE00000207047006A49F64041800701EAE07020
:102DF000704700BFC2F3834015A3185CD2030DD403
:102E000040F60012C0F23D02504313E050F8040CAB
:102E10004FF22441800301EAE07070470A6810A372
:102E2000C2F340429A5C41F20023C0F27A03B3FB42
:102E3000F2F250430968490248BF70474AF6AB2195
:102E40004000CAF6AA21A0FB01014808704700BF54
:102E500002030405060708090A0B0C0D0E0F1010DB
:102E6000010200002DE9F04182B00446007841F2F1
:102E70001C06C007C4F202064AD030685FEAC008E8
:102E800008D4306840F080503060306800F08050E6
:102E90000190019847F20007C4F200073868C005A6
:102EA00012D4386840F480703860FFF789FB05461B
:102EB0003868C00508D4FFF783FB401B6428F7D9A6
:102EC000032002B0BDE8F081706810F4407012D0A9
:102ED000616801F4407188420DD0706840F2404250
:102EE000C4F24222012320F4407113600023C00782
:102EF0001360716026D17068616820F440700843E7
:102F0000B8F1000F706003D4306820F0805030605A
:102F10002068810707D556F8181CA26821F44041A3
:102F2000114346F8181CC00607D556F8180CE1687E
:102F300020F48000084346F8180C002002B0BDE8D9
:102F4000F08100BFFFF73CFB054641F2883700BF28
:102F500070688007CFD4FFF733FB401BB8424FF0B7
:102F60000300F5D9EAE70000002804BF01207047FC
:102F70002DE9F04381B042F20008C4F20208044691
:102F8000D8F800000D4600F0070081420CD9D8F8AF
:102F9000000020F007002843C8F80000D8F800001F
:102FA00000F00700A8426CD1206841F204098107B3
:102FB000C4F2020917D5410705D5D9F8001041F42C
:102FC000E061C9F80010010705D5D9F8001041F4F7
:102FD0006051C9F80010D9F80010A26821F0F00182
:102FE0001143C9F80010C00742D1D8F8000000F022
:102FF000070085420CD2D8F8000020F007002843D3
:10300000C8F80000D8F8000000F00700A84238D146
:103010002068410707D5D9F80010E26821F4E06183
:103020001143C9F80010000708D5D9F8000021693C
:1030300020F4605040EAC100C9F80000D9F800202F
:1030400002F00C00082841F20020C0F27A004DD1B5
:1030500046F24C43C2F38341C0F60003595CD203ED
:1030600038D440F60010C0F23D0048433EE000BFB7
:10307000606859F8041C022808D0012826D1890369
:1030800006D4012001B0BDE8F08300BF8901F8D566
:10309000D9F8001021F003010843C9F80000FFF738
:1030A0008FFA064641F28837D9F80000616800F0CF
:1030B0000C00B0EB810F98D0FFF782FA801BB8426A
:1030C000F2D9032001B0BDE8F08300BF8907D8D54D
:1030D000DEE700BFD9F8002045F63763C2F340426F
:1030E000C0F600039A5C4843B0FBF2F0D9F8001038
:1030F00045F61F62C1F30311C0F60002515C40F2B5
:103100000C0220FA01F140F20400C2F20000006853
:10311000C2F200021160FFF795FD002001B0BDE88A
:10312000F083000040F20C0041F20401C2F2000002
:10313000C4F202010068096845F62F62C1F302215A
:10314000C0F60002515CC8407047000040F20C001D
:1031500041F20401C2F20000C4F2020100680968F1
:1031600045F62F62C1F3C221C0F60002515CC8408F
:1031700070470000002804BF012070472DE9F0418E
:1031800082B00446007841F20006C007C4F202068D
:103190000CD0706800F00C00042840F0818030688A
:1031A000800303D56068002800F0468120788007FE
:1031B0001BD5706810F00C0F09D0706800F00C007F
:1031C000082840F087807068C00300F18380306871
:1031D000800703D52069012840F02E81306861699D
:1031E00020F0F80040EAC10030602078000713D4D6
:1031F000207840072CD4E569002D00F01881706814
:1032000000F00C00082840F0A780012D40F0048158
:10321000012002B0BDE8F081A069002800F08480A0
:103220000020C4F242200121C0F88014FFF7C8F941
:10323000054600BF706A800700F1B280FFF7C0F951
:10324000401B0228F6D9032002B0BDE8F08100BF80
:10325000F0695FEAC00808D4F06940F08050F0617E
:10326000F06900F080500090009847F20007C4F227
:1032700000073868C00549D4386840F48070386069
:10328000FFF79EF9054600BF3868C0053ED4FFF73A
:1032900097F9401B6428F7D9032002B0BDE8F081FC
:1032A000706800F00C00082803D17068C0033FF577
:1032B00076AF61683068002900F00C81B1F5A02F6D
:1032C00000F00081B1F5803F40F01A8140F4803079
:1032D0001CE100BF2069002840F20000C4F2422037
:1032E00000F0888001210160FFF76AF9054600BF00
:1032F000306880073FF572AFFFF762F9401B022884
:10330000F6D9032002B0BDE8F08100BFE168306A61
:10331000002900F09D80052900F09280012940F0ED
:10332000AF8040F00100B1E00020C4F24220002153
:10333000C0F88014FFF744F9054600BF706A8007A3
:103340007FF556AFFFF73CF9401B0228F6D9032062
:1033500002B0BDE8F08100BF0027C4F24227002080
:103360003866FFF72DF9022D05460DD13068800132
:1033700040F1DE80FFF724F9401B02284FF00300E4
:10338000F4D902B0BDE8F081306880014FD5FFF775
:1033900017F9401B02284FF00300F5D9F1E700BFF1
:1033A00040F20C00C2F20000006844F6D351C1F2B2
:1033B0006201A0FB0101480A019000BF00BF019813
:1033C000411E002801913FF413AF00BF0198411E38
:1033D000002801913FF40CAF00BF0198411E002866
:1033E00001913FF405AF00BF0198411E00280191F3
:1033F000E4D1FDE600210160FFF7E2F8054600BFD9
:10340000306880077FF5F1AEFFF7DAF8401B02283D
:103410004FF00300F4D9B4E77068216A00F48032F9
:103420008A4209D1616A00F47010884204D10020F8
:1034300002B0BDE8F08100BF012002B0BDE8F0811C
:1034400040F004003062306A40F001001EE000BF2E
:1034500020F001003062306A20F004003062FFF793
:10346000AFF8054641F28837306A800720D5FFF76C
:10347000A7F8401BB8424FF00300F5D981E700BF21
:1034800020F001003062306A20F004003062FFF763
:1034900097F8054641F28837306A800708D4FFF76D
:1034A0008FF8401BB842F7D9032002B0BDE8F08185
:1034B000B8F1000F3FF59FAEF06920F08050F06149
:1034C00099E600BF40F480203060306840F48030DE
:1034D0001CE000BF20F480303060306820F4802091
:1034E0003060FFF76DF80546306880037FF55EAE0B
:1034F000FFF766F8401B64284FF00300F4D940E75B
:1035000020F480303060306820F480203060FFF795
:1035100057F80546306880033FF548AEFFF750F88E
:10352000401B6428F6D9032002B0BDE8F08100BF3B
:10353000206AB0F5803F05D17168A26821F400319E
:10354000114371607168626A21F474111143084378
:10355000706001203866FFF733F804463068800158
:103560003FF565AFFFF72CF8001B02284FF0030072
:10357000F4D906E7411E0020B0EB116F1CBF0120FB
:1035800070474EF21002CEF2000251604EF6235107
:10359000CEF20001F0230B7007219060116070479C
:1035A000704700007047000090F83C20012A4FF05F
:1035B000020236D010B580F83D200268D2F804E04F
:1035C000D2F808C00C682EF07003234340F2FF7459
:1035D000C4F20004A24253600ADCB2F1804F13D05F
:1035E00040F20043C4F200039A420DD011E000BF44
:1035F00042F60043C4F201039A4205D040F60003AC
:10360000C4F200039A4204D149682CF080031943A4
:1036100091600121002280F83D1080F83C20BDE837
:103620001040104670470000002804BF012070477A
:1036300010B590F83D1031B9002180F83C100446D7
:1036400000F070F82046022180F83D10016840F239
:10365000FF740B68C4F2000442F6004CA142C4F2AD
:10366000010C15DCB1F1804F1AD040F20042C4F2D7
:103670000002914214D0A14218DCB1F1804F1DD05C
:1036800040F20042C4F20002914217D01AE000BF9B
:10369000614505D040F60002C4F200029142EAD131
:1036A000826823F070031343A142E6DD614505D033
:1036B00040F60002C4F20002914203D1026923F4F1
:1036C00040731343846923F08002D0F804E0C36898
:1036D000224361450A60CB62C1F828E002D1426909
:1036E000CCF8302001224A610B69DB0703D00B695B
:1036F00023F001030B6180F8462080F83E2080F81B
:103700003F2080F8402080F8412080F8422080F857
:10371000432080F8442080F8452080F83D20002098
:1037200010BD0000006842F60041C4F20101884269
:1037300018BF704780B582B041F21800C4F2020091
:103740000168002241F4006101600068002100F47A
:103750000060019001981920FFF7CCFA192002B0FF
:10376000BDE88040FFF7B4BA90F83D1001291CBFB6
:1037700001207047022180F83D10006840F2FF727E
:10378000C168C4F20002904241F00101C16009DC4D
:10379000B0F1804F12D040F20041C4F200018842E3
:1037A0000CD012E042F60041C4F20101884205D07B
:1037B00040F60001C4F20001884206D1816801F0A0
:1037C0000701062904BF00207047016841F001018C
:1037D000016000207047000090F83C20012A4FF063
:1037E00002026CD080B580F83D20D0F800C04FF6C2
:1037F0007772DCF8083023EA0202CCF808200B6864
:103800004F2B29DC1F2B45DD202B46D0302B44D0FD
:10381000402B40F0AF80D1F804E0C968DCF82030DC
:10382000DCF8202022F00102CCF82020DCF818205F
:1038300022F0F00242EA011123F00A0242EA0E02EB
:10384000CCF81810CCF82020DCF8081041F0470123
:1038500021F0300128E000BF6F2B33DDB3F5005FAE
:1038600074D0B3F5805F21D0702B40F08380D1E914
:1038700001E3C968DCF8082043EA0E0322F47F4222
:1038800043EA01211143CCF80810DCF8081041F09C
:10389000770109E00BB1102B6CD1DCF8081021F096
:1038A0007001194341F00701CCF8081000220121F2
:1038B00080F83D10002180F83C10BDE880401046A3
:1038C000704700BF502B21D0602B53D1D1F804E0BA
:1038D000C968DCF82030DCF8202022F01002CCF897
:1038E0002020DCF8182022F4704242EA013123F053
:1038F000A00242EA0E12CCF81810CCF82020DCF816
:10390000081041F0670121F01001CDE7D1F804E083
:10391000C968DCF82030DCF8202022F00102CCF865
:103920002020DCF8182022F0F00242EA011123F0F6
:103930000A0242EA0E02CCF81810CCF82020DCF87B
:10394000081041F0570121F02001ADE7D1E901E372
:10395000C968DCF8082043EA0E0322F47F4243EAF8
:1039600001211143CCF80810DCF8081041F4804123
:103970009AE700BF01229AE77047000070B504463D
:103980000068C5680669B10716D515F0020113D0A5
:103990006FF002010161012121778069800703D066
:1039A0002046FFF7E9FF05E0204600F08FF82046AB
:1039B00000F026FA00202077700719D515F00400D2
:1039C00016D020686FF0040101610221217780691F
:1039D00010F4407F04D02046FFF7CEFF06E000BF82
:1039E000204600F073F8204600F00AFA0020207705
:1039F000300717D515F0080014D020686FF00801C3
:103A0000016104212177C069800703D02046FFF7B8
:103A1000B3FF05E0204600F059F8204600F0F0F929
:103A200000202077F00619D515F0100016D0206878
:103A30006FF01001016108212177C06910F4407F07
:103A400004D02046FFF798FF06E000BF204600F0B4
:103A50003DF8204600F0D4F900202077F00718BF89
:103A600015F0010002D1300609D412E020686FF091
:103A700001010161204600F033FA300609D515F046
:103A8000800006D020686FF0800101612046FFF7BA
:103A900087FD700609D515F0400006D020686FF04C
:103AA00040010161204600F02BFAB00658BF70BDFE
:103AB00015F0200008D021686FF0200220460A612E
:103AC000BDE87040FFF76EBD70BD0000704700009C
:103AD00090F83C30012B04BF022070474FEAB2023D
:103AE000032A00F2F1802DE9F043DFE802F003A59C
:103AF0003B7500BF036842F600461D6A1A6AC4F2AD
:103B0000010622F001021A621A465C6852F818CFC8
:103B1000B3428E68D1F800E025F0020545EA0605BB
:103B20000CD1CE68D1E9057824F4407425F00C0559
:103B300026F004063C43354344EA08042CF073079E
:103B400047EA0E075C609F614F6809695F631D6209
:103B50009F6947F008079F619F6927F004079F61ED
:103B6000A6E000BF036842F600461D6A1A6AC4F266
:103B7000010622F480721A621A46D3F804C052F881
:103B80001CEFB3428E680C6825F4007545EA0625E3
:103B90000FD1CE68D1E90598360240F2FF4725F4EF
:103BA0004065BE4335432CF4405748EA090647EACE
:103BB000061C2EF073072743C3F804C0DF614F686B
:103BC0000969DF631D62DF6947F00807DF61DF69AC
:103BD00027F00407DF616BE0036842F60047D3F883
:103BE00020C01A6AC4F2010722F480521A621A46EF
:103BF0005C6852F81C5FD1F800E08E68BB4204D1CB
:103C00004F6924F4804444EA87142CF4005747EAAF
:103C1000063725F4E64646EA0E265C60DE614E680D
:103C200009691E641F62DF6947F40067DF61DF69AD
:103C300027F48067DF613AE0036842F600461D6AB8
:103C40001A6AC4F2010622F010021A621A46D3F868
:103C500004C052F8184FB3428E68D1F800E025F046
:103C6000200545EA06150FD1CE68D1E905986FF019
:103C7000400725F0C00507EA061635432CF44067D7
:103C800048EA090647EA860C24F4E64444EA0E278B
:103C9000C3F804C09F614F6809699F631D629F69F3
:103CA00047F400679F619F6927F480679F6109025D
:103CB0001368194311600021BDE8F043002280F829
:103CC0003C200846704700BF0121002280F83C20BC
:103CD00008467047002804BF0120704710B590F8CF
:103CE0003D1031B9002180F83C10044600F070F816
:103CF0002046022180F83D10016840F2FF740B68F5
:103D0000C4F2000442F6004CA142C4F2010C15DCDE
:103D1000B1F1804F1AD040F20042C4F20002914249
:103D200014D0A14218DCB1F1804F1DD040F2004206
:103D3000C4F20002914217D01AE000BF614505D0DD
:103D400040F60002C4F200029142EAD1826823F0F8
:103D500070031343A142E6DD614505D040F6000241
:103D6000C4F20002914203D1026923F44073134369
:103D7000846923F08002D0F804E0C36822436145DF
:103D80000A60CB62C1F828E002D14269CCF8302049
:103D900001224A610B69DB0703D00B6923F00103A1
:103DA0000B6180F8462080F83E2080F83F2080F8A4
:103DB000402080F8412080F8422080F8432080F89D
:103DC000442080F8452080F83D20002010BD0000F0
:103DD000006840F20041C4F20001884218BF7047F9
:103DE00081B041F21C00C4F20200016841F00201FE
:103DF0000160006800F002000090009801B0704778
:103E000070470000C1B1042908D0082914BF41221D
:103E10004022825C012A05D016E000BF3F22825C6E
:103E2000012A11D10222082910D0042914BF80F8D8
:103E3000412080F83F200BE090F83E20012A03D17A
:103E4000022280F83E2003E00120704780F84020E5
:103E5000006801F01F010122036A8A4023EA02017F
:103E60000162036A42F64441C4F201011A43A1F11E
:103E70004403984202620FD040F2FF71C4F2000185
:103E8000884213DCB0F1804F1CD040F20041C4F2F4
:103E90000001884216D01CE00A6842F400420A6021
:103EA00040F2FF71C4F200018842EBDD42F60041AE
:103EB000C4F20101884205D040F60001C4F20001BD
:103EC000884206D1816801F00701062904BF00205D
:103ED0007047016841F00101016000207047000057
:103EE000006842F60041C4F20101884218BF7047E1
:103EF00040F27800C2F20000016C013101647047A9
:103F000070470000FDF738FDFEE7000070B503685C
:103F1000044653F8140F400711D40E46481C29D00C
:103F200086BB00BF1868400527D4FEF749FB23680D
:103F300053F8140F400737D518684007F2D5002012
:103F400070BD00BF18684007F9D41868400514D444
:103F500018684007F3D4186840050ED41868400765
:103F6000EDD41868400508D4186840074FF00000E9
:103F700048BF70BD18684005E4D56FF480601860D4
:103F8000042012E0154603E053F8140F4007D6D47E
:103F900018684005F1D4FEF713FB401B2368B042BC
:103FA000F2D958694007EFD4202000212022216354
:103FB00084F83D2084F83E10226C104320640120D8
:103FC00084F83C1070BD00002DE9F0410546006802
:103FD0001E46144601F47F0201338FB242D0DDF851
:103FE0001880B2F5803F40F0878040693840C01BA0
:103FF000B0FA80F04009844240F0C8804EB924E015
:1040000040693840C01BB0FA80F04009844240F05B
:10401000BD80FEF7D5FAA0EB08012868B142EFD9C0
:1040200041693940C91BB1FA81F149098C42E7D194
:104030009BE000BF40693840C01BB0FA80F04009E7
:1040400084424FF0000040F0A280FEF7B9FA2868E1
:1040500041693940C91BB1FA81F149098C42E9D162
:1040600083E000BFB2F5803F24D100BF41693940F1
:10407000C91BB1FA81F149098C4240F0878041693E
:104080003940C91BB1FA81F149098C4240F07E8068
:1040900041693940C91BB1FA81F149098C4275D196
:1040A00041693940C91BB1FA81F149098C42DDD01F
:1040B0006CE000BF81693940C91BB1FA81F149093F
:1040C0008C4263D181693940C91BB1FA81F1490938
:1040D0008C425BD181693940C91BB1FA81F1490930
:1040E0008C4253D181693940C91BB1FA81F1490928
:1040F0008C42DFD04AE000BF80693840C01BB0FA74
:1041000080F04009844241D146B923E080693840BB
:10411000C01BB0FA80F04009844237D1FEF750FA54
:10412000A0EB08012868B142F0D981693940C91B68
:10413000B1FA81F149098C42E8D116E08069384032
:10414000C01BB0FA80F0400984424FF0000018BF55
:10415000BDE8F081FEF734FA286881693940C91B4F
:10416000B1FA81F149098C42E8D10020202128636D
:1041700085F83D1085F83E00296C41F02001296446
:1041800085F83C000120BDE8F08100BF0020BDE8BB
:10419000F0810000F0B581B0044600681D46436917
:1041A0008FB203EA0701B94202D1002001B0F0BD8D
:1041B0004169164601323CD0490512D47EB300BF96
:1041C000FEF7FEF9411B2068B14203D9416939402D
:1041D000B9422BD141693940B942E6D0416949051C
:1041E000EED5016841F4007101606FF480614161B6
:1041F000042000212022216384F83D2084F83E1011
:10420000226C1043206484F83C10012001B0F0BD02
:1042100041693940B942C8D041694905E1D4FEF746
:10422000CFF9206841693940B942F1D02020E0E758
:1042300041694905D5D441693940B942B5D0416990
:104240004905CED441693940B942AED041694905EA
:10425000C7D441693940B942A7D041694905C0D4A2
:1042600041693940B942E3D19FE7000070B5036866
:10427000044653F8140F000611D40E46481C29D0EA
:1042800086BB00BF1868400527D4FEF799F923685C
:1042900053F8140F000637D518680006F2D5002031
:1042A00070BD00BF18680006F9D41868400514D422
:1042B00018680006F3D4186840050ED41868000684
:1042C000EDD41868400508D4186800064FF00000C7
:1042D00048BF70BD18684005E4D56FF48060186071
:1042E000042012E0154603E053F8140F0006D6D45C
:1042F00018684005F1D4FEF763F9401B2368B0420B
:10430000F2D958690006EFD4202000212022216331
:1043100084F83D2084F83E10226C10432064012074
:1043200084F83C1070BD0000B0B584B040F2DC6091
:1043300042F20041C2F20000C4F2010100244FF435
:104340006022012504730475C261C0E90014846011
:104350000561FDF7BBFC002818BFFDF70DFB05202C
:10436000039040F2DC60C2F2000001A9CDE90145F2
:10437000FDF708FC002818BFFDF7FEFA04B0B0BD39
:10438000F0B585B0002641F21800CDE90366CDE90D
:104390000166C4F20200016841F2000441F010011C
:1043A00001600168C4F2010401F01001009100995C
:1043B0000168012241F02001016001684FF40055BD
:1043C00001F02001009100990168012741F00401EA
:1043D0000160016801F0040100910099016841F059
:1043E0000801016000684FF4005100F008000090DF
:1043F00000982046FEF7DEF8CDE90157022001AD16
:104400000490204629460396FDF7BEFF4FF4F07056
:10441000CDE90106A4F5806029460396FDF7B4FFB7
:1044200005B0F0BD10B540F20C7045F60001C2F2C7
:104430000000C4F2000148F2A06200234FF480445F
:10444000C0F2010280E80E00C0E90334C0E9053380
:10445000C0E90733FEF7D4F8002818BFFDF78CFA3F
:1044600040F20C74C2F200042046FEF7AFF80028B8
:1044700018BFFDF781FA41F68020C0F206006060A7
:104480002046FEF7BDF8002808BF10BDBDE810406B
:10449000FDF772BA80B586B040F2607042F6004215
:1044A0000021C2F20000C4F20102472342F20F7C55
:1044B0000591CDE90311CDE90011C0E90023C0E960
:1044C000021CC0E904118161FFF7AEF8002818BF93
:1044D000FDF752FA4FF48050029040F26070C2F241
:1044E000000002A9FFF778F9002818BFFDF744FA89
:1044F00040F26070C2F200006946FFF755F80028EC
:1045000018BFFDF739FA06B080BD0000B0B590B015
:1045100040F2004540F2A870C4F200050021C2F24A
:104520000000472240F2E733CDE90811CDE906113A
:10453000CDE90411C0E90052C0E9021301618161B3
:10454000FFF7C8FB002818BFFDF716FA40F2A87065
:10455000C2F2000008A9FFF727F8002818BFFDF7EE
:104560000BFA602001900020CDE90200059040F296
:10457000A870C2F2000001A90822FFF7A9FA0028DA
:1045800018BFFDF7F9F940F2A874C2F2000401A9BE
:1045900020460C22FFF79CFA002818BFFDF7ECF923
:1045A00020680021C1634FF47A710164204608211C
:1045B000FFF728FC002818BFFDF7DEF940F2A874C9
:1045C000C2F2000420460C21FFF71CFC002818BF93
:1045D000FDF7D2F921680020A942CDE90E000D9027
:1045E0000C9001D010B0B0BD41F21800C4F202002E
:1045F000016841F00801016000680CA900F00800A2
:104600000B900B9803200C9002200D900F9005F555
:104610008430FDF7B9FE10B0B0BD0000FDF7ACF975
:10462000FEE70000FDF7A8F9FEE70000B0B582B094
:1046300040F21205C2F20005298840F20C7045F6DE
:1046400039621424C2F20000C0F600021A2300945A
:10465000FEF792F910B102B0B0BD00BF40F21810E1
:10466000C2F200004FF48061FBF783FF00F0CCFB47
:104670000028F0D14FF42F402988ADF8060040F211
:104680000C701425C2F200000DF106020223009501
:10469000FEF772F902B0B0BD80B540F21810C2F258
:1046A00000004FF48061FBF764FF80BD2DE9F04707
:1046B00082B09A46137813B30646DDF828809AF83C
:1046C00001008946571E00BF9AF80050A3F120024E
:1046D000EB1DDAF80410DC08C3B202FB03F000FBA8
:1046E0000412F0B24946CDE9005800F091F89AF86A
:1046F0000100BB780644002B07F10107E4D102B0AA
:10470000BDE8F08740F21201C2F200010880704754
:104710002DE9F04F01F0070CDDF824E003EB0C0469
:10472000092C4FEAD10847D345B2002D20D43F29A8
:104730001ED8CCF1080BFF2323FA0BF940F2181313
:10474000C2F2000302FA0CF603EBC813BEF1000F2D
:1047500018BFF64313F800A046EA09070AEA07095A
:104760006FF0FF0747FA0BF73E4046EA09061E5472
:10477000002D4BD4372949D804F1F703CCF10807B1
:10478000FA40DBB24FF4FF7707FA03F340F2181751
:1047900008F10101C2F2000707EBC111BEF1000FE1
:1047A00018BFD2430F5C42EA030637409A433A43AC
:1047B0000A54BDE8F08F00BF43B2002B26D43F2936
:1047C00088BFBDE8F08F611EC9B24FF4FF7340F29D
:1047D000181603FA01F1CCF10803FF27C2F2000614
:1047E00002FA0CF2DF4006EBC816BEF1000F18BF4C
:1047F000D2431743355C0F432F406FF0FF0545FA56
:1048000003F323EA0101114039433154BDE8F08F2D
:104810002DE9F04F97B0002B0692129100F0F08234
:10482000DDE920298246B9F1000F48461D464FEACE
:10483000D20318BF4FF0FF30082A02F00708169085
:1048400004D2B8F1000F40F0C082D9E21298CDF83E
:104850000C8010F00708A3F10100059003F003009D
:10486000089005EB450010904FEA850002931190E7
:10487000079500F0C781C8F10801FF20C8401490D7
:104880006FF0FF0008411390A8F101000F91C0B232
:104890004FF4FF7101FA00F00E90C0430D906800D4
:1048A0000A901C2000EAD200404200210C90099599
:1048B000CDF85480CDF810A00FE000BF10980B99F0
:1048C000013010900A98013101300A900998A942EC
:1048D00000F10100099000F06F820AEB01000B91DA
:1048E00041B240F2181E0029C2F2000EE6D405992A
:1048F0005FFA80FB032905D200240898002840F0C5
:10490000DD80DBE7069C032508E000BF0C9804353A
:10491000284403281198044400F0C880129800EB42
:10492000C50AAAF11800C1B23F2930D80B98CA08AD
:1049300014F8009015980EEBC21309FA00F61698B9
:10494000149F464013F80BE0139846EA070C0EEA52
:104950000C0740F2181E0640DDF85480C2F2000E2B
:104960003743372903F80B7011D8511C0F9A0EEBFF
:10497000C11129FA02F0169A0E9B504011F80B2033
:1049800003431A400D9B1840104301F80B00AAF195
:104990001000C1B23F2929D80998CA0814F800C0EC
:1049A00016980CFA08F343400EEBC217149817F848
:1049B0000B6018433040139EDDF854803340184399
:1049C000372907F80B0011D80F99501C169A2CFAAA
:1049D00001F10EEBC0100E9B514010F80B200B4361
:1049E0001A400D9B1940114300F80B10AAF1080062
:1049F000C1B23F2929D80A98CA0814F800C01698ED
:104A00000CFA08F343400EEBC217149817F80B602A
:104A100018433040139EDDF8548033401843372943
:104A200007F80B0011D80F99501C169A2CFA01F1B7
:104A30000EEBC0100E9B514010F80B200B431A4098
:104A40000D9B1940114300F80B105FFA8AF13F29C2
:104A50003FF65CAF1098CA0814F800C016980CFA1C
:104A600008F343400EEBC217149817F80B60184375
:104A70003040139EDDF8548033401843372907F83F
:104A80000B003FF643AF0F99501C169A2CFA01F118
:104A90000EEBC0100E9B514010F80B200B431A4038
:104AA0000D9B1940114300F80B102FE7EC1EDDF8A9
:104AB00010A0079D089800283FF400AF12980699AF
:104AC00000EBC4000B9AC0B23F2801EB020C2BD8BC
:104AD00004FB05F11CF80190C208169909FA08F3C5
:104AE0000EEBC217149D4B4017F80B6013991D4332
:104AF0002E40079D0B40DDF854803343372807F8DC
:104B00000B3011D8501C0F9A0EEBC01029FA02F18D
:104B1000169A0E9B514010F80B200B431A400D9B28
:104B20001940114300F80B10089801283FF4C6AE55
:104B30001298611C00EBC100C0B23F282AD869431B
:104B40001CF80190C208169909FA08F30EEBC21777
:104B5000149D4B4017F80B6013991D432E40079D81
:104B60000B40DDF854803343372807F80B3011D859
:104B7000501C0F9A0EEBC01029FA02F1169A0E9BE8
:104B8000514010F80B200B431A400D9B1940114364
:104B900000F80B10089802283FF490AE1298A11C60
:104BA00000EBC100C0B23F283FF688AE69431CF855
:104BB0000110169FC20801FA08F37B400EEBC217E2
:104BC000149D17F80B60139C1D432E40079D234036
:104BD000DDF854803343372807F80B303FF66EAECC
:104BE000501C0F9A0EEBC010D140169A0E9B5140EC
:104BF00010F80B200B431A400D9B1940114300F88D
:104C00000B105BE61C2000EAD2004FEA450EC0F113
:104C1000000C0024A9460AE01098013401300EF17E
:104C2000010EAC4209F10109109000F0C5800AEBB9
:104C3000040041B20029EFD40599C3B2032905D27B
:104C40000020089900296BD1E6E700BF06980322EF
:104C500007E000BF04320CEB02010329119908445C
:104C600058D0129901EBC201A1F11805EEB23F2E06
:104C70000ED9A1F11005EEB23F2E1AD9A1F1080507
:104C8000EEB23F2E27D9CDB23F2DE3D833E000BF9F
:104C9000065D169F05F0F8057E4040F21817C2F237
:104CA000000707EB0515EE54A1F11005EEB23F2EFB
:104CB000E4D810F80960169F05F0F8057E4040F230
:104CC0001817C2F2000707EB0515EE54A1F108050D
:104CD000EEB23F2ED7D810F80E60169F05F0F805FB
:104CE0007E4040F21817C2F2000707EB0515EE549C
:104CF000CDB23F2DAED8109D169E455D01F0F80156
:104D0000754040F21816C2F2000606EB0111CD54B0
:104D1000A0E700BF079DD01E089900293FF47CAF93
:104D2000129901EBC002D1B23F29069921440ED855
:104D3000079D169E45434D5D02F0F802754040F216
:104D40001816C2F2000606EB0212D554079D089A07
:104D5000012A3FF461AF129A451C02EBC502D6B29C
:104D60003F2E0DD8079E02F0F80275434D5D169E4A
:104D7000754040F21816C2F2000606EB0212D55436
:104D8000089A079D022A3FF447AF821C129800EB55
:104D9000C200C5B23F2D079D3FF63EAF6A43895C16
:104DA000169A00F0F800514040F21812C2F20002C8
:104DB00002EB0010C1542FE7DDF80C80DDE920295B
:104DC000029BB8F1000F1BD0D5B1129902F0F80088
:104DD00001440698CEB203FB05046D424FF0FF304C
:104DE000471C204442780AEB0700C0B231464346D4
:104DF000CDF80090FFF78CFCE81901303846EFD170
:104E000017B0BDE8F08F00002DE9F04182B04BF201
:104E10000000C1F2000040F2185440F21207019065
:104E2000C2F200044020C2F200073988207040F22C
:104E30000C701426C2F2000001AA04230096FDF7AC
:104E40009BFD18B102B0BDE8F08100BF40F2181818
:104E5000651CC2F20008284641468022FBF744FB4D
:104E6000398840F20C70C2F200002246812300967D
:104E7000FDF782FD0028E5D1B12039888DF80500C5
:104E800040F20C701426C2F2000001AA042300961E
:104E9000FDF772FD0028D5D108F180012846802257
:104EA000FBF722FB398840F20C70C2F20000224668
:104EB00081230096FDF760FD0028C3D1B220398818
:104EC0008DF8050040F20C701426C2F2000001AA11
:104ED00004230096FDF750FD0028B3D108F580713A
:104EE00028468022FBF700FB398840F20C70C2F2A2
:104EF0000000224681230096FDF73EFD0028A1D147
:104F0000B32039888DF8050040F20C701426C2F2E7
:104F1000000001AA04230096FDF72EFD002891D180
:104F200008F5C07128468022FBF7DEFA398840F286
:104F30000C70C2F20000224681230096FDF71CFD92
:104F400000287FF47FAFB42039888DF8050040F247
:104F50000C701426C2F2000001AA04230096FDF78B
:104F60000BFD00287FF46EAF08F500712846802203
:104F7000FBF7BAFA398840F20C70C2F20000224600
:104F800081230096FDF7F8FC00287FF45BAFB52085
:104F900039888DF8050040F20C701426C2F200002A
:104FA00001AA04230096FDF7E7FC00287FF44AAF2E
:104FB00008F5207128468022FBF796FA398840F2DE
:104FC0000C70C2F20000224681230096FDF7D4FC4B
:104FD00000287FF437AFB62039888DF8050040F2FD
:104FE0000C701426C2F2000001AA04230096FDF7FB
:104FF000C3FC00287FF426AF08F5407128468022C4
:10500000FBF772FA398840F20C70C2F200002246B7
:1050100081230096FDF7B0FC00287FF413AFB72082
:1050200039888DF8050040F20C701426C2F2000099
:1050300001AA04230096FDF79FFC00287FF402AF2D
:1050400008F5607128468022FBF74EFA398840F255
:105050000C70C2F20000224681230096FDF78CFC02
:1050600002B0BDE8F0810000704700002DE9F04F6C
:1050700083B00090012001900520029040F2DC6096
:105080000C46C2F200006946FCF77CFD20B100200E
:1050900003B0BDE8F08F00BF40F2DC60C2F2000058
:1050A000FDF72CF80028F2D140F2DC60C2F20000DB
:1050B0000521FCF7EBFE48B140F2DC60C2F20000D3
:1050C000FDF784F8002003B0BDE8F08F40F2DC6506
:1050D000C2F200052846FCF7F5FD2846FDF776F8F4
:1050E0000028D4D140F2A877C2F200073868466A97
:1050F000FDF766FA054600BF38683146466A8E42BB
:105100000AD3FDF75DFA401B05284FF00000F3D9E4
:1051100003B0BDE8F08F00BF40F2DC684FF0000B39
:105120004CF6CD4AC2F2000800254FF4FA606843FD
:1051300000F57A7080B200FB0AF04FEA5059FDF793
:105140003FFA06463868406A484507D2FDF738FA04
:10515000801B05284FF00000F4D9D9E74046FCF742
:10516000CDFF002893D140460521FCF78FFE002893
:10517000A2D14046FCF7A6FD06464046FDF726F8BC
:1051800000287FF484AF0135142DB344CDD14CF603
:10519000CD410BF10A00CCF6CC41A0FB010108097E
:1051A0002080012003B0BDE8F08F00002DE9F0431E
:1051B00083B00090012001900520029040F2DC6055
:1051C0008946C2F2000069461446FCF7DBFC18B1C0
:1051D000002003B0BDE8F08340F2DC60C2F20000C2
:1051E000FCF78CFF0028F3D140F2DC60C2F2000033
:1051F0000521FCF74BFE48B140F2DC60C2F2000032
:10520000FCF7E4FF002003B0BDE8F08340F2DC6669
:10521000C2F200063046FCF755FD3046FCF7D6FFDB
:105220000028D5D10026DCB140F2DC68C2F20008CB
:1052300025464046FCF762FF0028C9D140460521BB
:10524000FCF724FE0028D7D14046FCF73BFD07467B
:105250004046FCF7BBFF0028BAD1013D3E44E8D1EF
:1052600006EB5400B0FBF4F0A9F80000012003B0F5
:10527000BDE8F0837047000086B00026CDE90466E3
:10528000CDE90266EFF3108072B641F21800C4F265
:105290000200016840F6004441F008010160016825
:1052A000C4F2010401F0080101910199016847F27B
:1052B000407741F0100101600068012100F010000A
:1052C0000190019820460022C0F21B074FF0010810
:1052D000FDF770F92046022101224FF00209FDF787
:1052E00069F903200DF1080ACDE90208CDE904604F
:1052F00020465146FDF748F804F5806420464FF4F7
:10530000005101224FF40055FDF754F92046514653
:10531000CDE90258CDE90469FDF736F820464FF48F
:105320000051FDF73FF901960198B842F6D200BF4F
:105330000198013001900198B842EFD200BF019866
:10534000013001900198B842E8D200BF01980130C5
:1053500001900198B842E1D200BF0198013001905C
:105360000198B842E3D3D9E741F21800C4F2020031
:105370000068C00658BF704740F27802C2F20002CF
:10538000107851780130C3B20131092BCBB288BFFC
:105390000020632B1070517016D980B540F2100CAC
:1053A000C2F2000C93789CF800104FF0000E012B15
:1053B00082F801E0BDE880400CD1092910D8013104
:1053C0008CF8001013E000BF40F21001C2F200019F
:1053D00009780CE041B101398CF8001007E000BFFA
:1053E0000023937003E000BF012191700021C9B236
:1053F000C0B2884241F200004FF00002C4F2010046
:105400004FF4005128BF0122FDF7D4B870B586B023
:10541000002541F21800CDE90455CDE90255C4F24A
:105420000200016840F6004441F008010160006894
:10543000C4F2010400F00800019001982046012107
:1054400000220126FDF7B6F8204602210122FDF7D1
:10545000B1F80320CDE90206CDE9045002A92046A7
:10546000FCF792FF06B070BD82B0FEF789FFFFF730
:105470004DF840F2A870C2F20000006840F27805D2
:10548000C16BC2F20005090408D00022296C2A7100
:105490002A6C2B6CE9641433C5E911320021C16315
:1054A0004FF47A710164FEF73FFF40F2DC60C2F214
:1054B0000000FCF7D9FA002840F01881FEF7B2FF8F
:1054C000FEF7E8FFFBF7DEFB40F26070C2F200007F
:1054D000FEF74AF9002840F00981C820FCF7B6FE23
:1054E00000F04CF918B14FF4FA70FCF7AFFE40F63B
:1054F0000044C4F20104FBF7C5FB00F00DFB286C6F
:105500004CF6CD46CCF6CC46002700E00198296C3D
:105510008842FCD0C1F1000800F10109019105E0C9
:1055200009F1010908EB09000128EFD048F21F50EA
:10553000C5F2EB10A9FB000AA9FB060B20462021AF
:10554000FDF72AF8B0FA80F1AA7949098A4201D117
:105550002F7213E02A7A0132D3B2032B2A720DD3B1
:10556000A9712F7250B9687DAB220130C1B251438D
:10557000490A01EB4101401AEF8668752046402137
:10558000FDF70AF8B0FA80F1AA7A49098A4201D1F6
:105590002F730DE02A7B0132D3B2032B2A7307D37A
:1055A000A9722F7320B901206875C820E88600BF52
:1055B00020468021FCF7F0FFB0FA80F1AA7B490970
:1055C0008A4201D12F742DE02A7C0132D3B2032B01
:1055D0002A7427D3A9732F7420BB40F20800C2F2AB
:1055E00000000188A1F11900002908BF4FF496704E
:1055F00081B2B1F5967F15D844F2AF725143A0EB5A
:10560000114292B2520802EB11410909192201FB21
:105610001201090406D140F20801C2F2000108801B
:105620000120A87520464FF48071FCF7B5FFB0FA51
:1056300080F1AA7C49098A4202D12F752EE000BF71
:105640002A7D0132D3B2032B2A7527D3A9742F7573
:1056500020BB40F20800C2F2000000888108193027
:105660004A2988BF002081B2B1F5967F16D844F24E
:10567000AF725143A0EB114292B2520802EB1141BA
:105680000909192201FB1201090407D140F208019E
:10569000C2F2000108800120A87500BF2BF00300B2
:1056A00000EB9B00484508BFFBF7ECFA4FEA1A10E5
:1056B00032214843484508BF00F02EFA4FEA5A10FD
:1056C0006421484348457FF42BAFE87800287FF4F5
:1056D00027AF686CB9EB00003FF522AFA86CA9EBCF
:1056E0000000142828BF00F049F819E7FFF7C4FDAF
:1056F00080B5FDF785FABDE88040FFF735BE0000B4
:10570000B0B594B000240120CDE90F44CDE90D449B
:105710000A900E904FF4E0104FF480310225139060
:105720000AA80494CDE90244CDE90B14CDE9115146
:10573000FDF720FDC0B90F20CDE905054FF48060CD
:10574000CDE9080405A802210794FDF70DFC58B91E
:10575000022001904FF40040039001A8FDF782FB66
:10576000002804BF14B0B0BDFCF706F97047000074
:1057700040F26070C2F20000FEF700B9F0B587B0E9
:1057800040F27806C2F2000696F834100020012993
:10579000F07040F04D81CDE90500CDE9030040F205
:1057A0000C7041F2100740F60044C2F20000C4F24F
:1057B0000207C4F20104FCF709FFB86803A940F02E
:1057C0000800B860B86800F00800029002984FF432
:1057D0004060039011200490012005900320069062
:1057E0002046FCF7D1FD20464FF440610122FCF732
:1057F000E1FE0120FCF72AFD20464FF40061FCF792
:10580000CBFE012800F0DD8020464FF480610022AD
:10581000FCF7D0FE0120FCF719FD20464FF4806113
:105820000122FCF7C7FE0120FCF710FD20464FF4D3
:105830000061FCF7B1FE012800F0C38020464FF460
:1058400080610022FCF7B6FE0120FCF7FFFC204639
:105850004FF480610122FCF7ADFE0120FCF7F6FC5D
:1058600020464FF40061FCF797FE012800F0A98064
:1058700020464FF480610022FCF79CFE0120FCF7DB
:10588000E5FC20464FF480610122FCF793FE0120E5
:10589000FCF7DCFC20464FF40061FCF77DFE01289C
:1058A00000F08F8020464FF480610022FCF782FEDA
:1058B0000120FCF7CBFC20464FF480610122FCF76D
:1058C00079FE0120FCF7C2FC20464FF40061FCF792
:1058D00063FE012875D020464FF480610022FCF75A
:1058E00069FE0120FCF7B2FC20464FF480610122E2
:1058F000FCF760FE0120FCF7A9FC20464FF4006194
:10590000FCF74AFE01285CD020464FF4806100225B
:10591000FCF750FE0120FCF799FC20464FF4806113
:105920000122FCF747FE0120FCF790FC20464FF4D3
:105930000061FCF731FE012843D020464FF480611E
:105940000022FCF737FE0120FCF780FC20464FF4D4
:1059500080610122FCF72EFE0120FCF777FC204637
:105960004FF40061FCF718FE01282AD020464FF4BE
:1059700080610022FCF71EFE0120FCF767FC204638
:105980004FF480610122FCF715FE0120FCF75EFC5C
:1059900020464FF40061FCF7FFFD012811D020469E
:1059A0004FF480610022FCF705FE0120FCF74EFC5D
:1059B00020464FF480610122FCF7FCFD0120FCF73A
:1059C00045FC20464FF4806100220025FCF7F2FDE3
:1059D00020464FF400610022FCF7ECFD0120FCF7AB
:1059E00035FC20464FF480610122FCF7E3FD0120E5
:1059F000FCF72CFC20464FF400610122FCF7DAFD95
:105A00000120FCF723FC386840F4800038603868D7
:105A100020F48000386040F20C70C2F20000FCF705
:105A2000EFFD18B1284607B0F0BD00BF86F834502E
:105A300040F20C70C2F20000782101220A23FCF728
:105A400091FE28BB7820FEF75DFEFEF7EFFDF8B96A
:105A500045F22020C3F23120059044F24970C5F28E
:105A60004840049045F253500024C4F64E4006943A
:105A70000390FEF711FE45F65463C0F6000303AA37
:105A8000142018210094FEF711FEFFF7BDF9D8B3DA
:105A900040F20C70C2F200007A2101220A23012494
:105AA000FCF760FE30BB7A20FEF72CFEFEF7BEFD51
:105AB00000BB45F22020C3F23120059044F249702A
:105AC000C5F24840049045F253500025C4F64E40BC
:105AD0008DF818500390FEF7DFFD45F65463C0F6CD
